:100000000C9439000C9456000C9456000C94560035
:100010000C9456000C9456000C9456000C94560008
:100020000C9456000C9462060C9456000C945600E6
:100030000C9456000C9470040C9456000C945600CA
:100040000C9456000C9456000C9456000C945600D8
:100050000C9456000C9456000C9456000C945600C8
:100060000C9456000C9456003E6733323E3E633388
:10007000320011241FBECFEFD8E0DEBFCDBF11E0AC
:10008000A0E0B1E0E8E2F4E102C005900D92AE36E6
:10009000B107D9F721E0AEE6B1E001C01D92AA3860
:1000A000B207E1F70E946B010C94120A0C94000055
:1000B00023988AB187798AB90000000008950F93C8
:1000C0001F93CF93DF93CDB7DEB72B970FB6F8947E
:1000D000DEBF0FBECDBF1F9285E08F9384E291E01B
:1000E0009F938F938E010F5F1F4F1F930F930E945B
:1000F0005F070E94D80582E390E00E94AA0687E28B
:1001000091E00E94E70561E080E00E945F06D8016F
:100110000D900020E9F7119787E0E2E3F1E001900C
:100120000D928A95E1F7C8010E94E70580E6809369
:100130007C0080917C00876080937C0080917A00B5
:10014000856080937A0080917A00806880937A003D
:1001500088EE93E00E94AA061B8680917A00806454
:1001600080937A001B850F900F900F900F900F9047
:100170000F90153088F040C0000000000000000023
:10018000000000000000000000000000000000006F
:10019000000000000000000080917A0086FDECCF96
:1001A0000E94D80582E390E00E94AA0660E080E009
:1001B0000E945F066091790070E080E090E00E940C
:1001C0003C0661E080E00E945F06BE01655F7F4FF4
:1001D00089E391E00E9454070E94E7051F5F1B8797
:1001E00080ED97E00E94AA0680917A008064809357
:1001F0007A001B85153080F280917A0080937A0016
:100200002B960FB6F894DEBF0FBECDBFDF91CF9116
:100210001F910F910895EF92FF920F931F93CF9329
:10022000239A8AB188668AB900000000CAEAC7BD6D
:10023000C8BD83EBE82EF12CF701C08304EB10E07E
:10024000F801C08380EB94E00E94AA06C7BDC8BD38
:1002500086E5F7018083F80180838EE794E00E94B1
:10026000AA06C7BDC8BDF701C083F801C08380EBF3
:1002700094E00E94AA0680E887BD88BDF7018083CC
:10028000F80180830E94D8058FE391E00E94E70582
:1002900088EE93E00E94AA06CF911F910F91FF90E4
:1002A000EF900C94580080E887BD88BD94B5936B9F
:1002B00094BD95B5936095BD8093B3008093B400D1
:1002C000E0EBF0E08081836B8083E1EBF0E0808104
:1002D00083608083089585B1826385B98AB182681D
:1002E0008AB90E94530188E690E00E94CF040E94E0
:1002F0000B0188EE93E00E94AA060E945F0088EE40
:1003000093E00E94AA0688EE93E00E94AA060E944B
:10031000D80585E691E00E94E70585E691E0199908
:1003200016C0599A5F98C0E5D1E08C179D0761F01F
:100330000E94D805CE010E94E7058BB18D778BB95D
:1003400082E390E00E94AA06CE01199BEACF1C9995
:1003500006C02BB122682BB9C7E4D1E0E6CF1D99C6
:1003600005C05F9A5998CAE5D1E0DFCFC5E6D1E074
:10037000DCCF90917301E0916E01F0916F019923B0
:1003800011F0849101C080812FEB280F2A3110F4E5
:10039000805E0895803249F49F012F5F3F4F309374
:1003A0006F0120936E01EF2B31F708951F93CF93C8
:1003B000DF930E94B901C0E0D0E01AE090ED980F01
:1003C0009A30B8F49E01129FE001139FD00D1124C2
:1003D000C80FD11D87FDDA95E09780916E0190914D
:1003E0006F01019690936F0180936E010E94B90195
:1003F000E5CFCE01DF91CF911F91089510926F004C
:1004000083E28093800081E18093810010928200DA
:1004100080E197E2909389008093880010928B008E
:1004200010928A00229A789408958F929F92AF92A8
:10043000BF92DF92EF92FF920F931F93CF93DF93C0
:100440005C018B01D42E80917001811105C081E087
:10045000809370010E94FE0110920901B7FE05C051
:10046000E894B7F82AE0F22E02C0FF24F394E0905B
:1004700081002E2D287FE22E48ECF49EC00111242D
:100480008A159B05E0F4E50151E1A51657E2B50692
:1004900010F0C0E1D7E2BE017695679580E090E06C
:1004A0006058794687469F4F4E01A12CB12CA5017B
:1004B00094010E94CD0659018E2D816024C0C8E2AE
:1004C000FC9EC02D1124D0E0CA15DB0508F4E5011F
:1004D000BE01769567959E0140E050E08AE0F812F3
:1004E00007C080E090E0605E734481449F4F06C087
:1004F00080E090E060537D4E8C4E9F4F0E94CD0671
:1005000059018E2D8260882E2AE0F21207C0CE019A
:1005100005966AE070E00E94B906EB01C83E43E030
:10052000D40759F09801DE010E940E0728EE33E04F
:1005300040E050E00E94EF06890110926F00809227
:100540008100B0928900A0928800209188003091AB
:1005500089004D2D403108F04FE080E190E0841B90
:100560009109A90102C0569547958A95E2F75093E3
:100570008B0040938A00109376010093750186B337
:100580008FEF86BB81E080936F00DF91CF911F9149
:100590000F91FF90EF90DF90BF90AF909F908F9062
:1005A0000895CF93DF93EB018F3F11F0411105C008
:1005B00040E0BE0188EE93E043C0813130F050EF5F
:1005C000580F503618F05FE501C050E0852F6CE001
:1005D0000E94AD06682F74EF760390011124250F59
:1005E000311D2C30310540F4F901EE0FFF1FE45F9F
:1005F000FE4F2081318102C020E030E0873081F061
:10060000082E02C0220F331F0A94E2F7823028F02E
:10061000C90105966AE070E00CC0C90190580CC091
:10062000C90136E0880F991F3A95E1F7029665E017
:1006300070E00E94B906CB01403108F04FE0BE01E6
:100640000E941502DF91CF910895A2E0B0E0EBE2A5
:10065000F3E00C941F0790900801809172018823A9
:1006600021F060917101611117C077247394B0EC8F
:10067000AB2EBDE5BB2E1AE0612E04E0802E80ED8E
:10068000C82E87E0D82E94E0E92EF12C04EF11E07B
:100690002FE0422E512C15C070E040E088EE93E030
:1006A0000E9415021092710117C18636D4F5813669
:1006B00009F4A9C07CF58C3309F460C08E3381F451
:1006C00093940E94B90120916E0130916F012F5FC8
:1006D0003F4F30936F0120936E01853631F752C042
:1006E000813209F08BC080920801D0920701C0923C
:1006F0000601F0920501E0920401109303010093BA
:100700000201509201014092000110927201A4E096
:100710009A2ED7CF8336A1F10CF478C010E082E096
:1007200077C08D36C1F194F4873691F174F18C362F
:1007300009F064C00E94D601BC019093050180932A
:100740000401809106019091070151C08237C9F1DF
:100750004CF48F3609F052C00E94D601982E809337
:100760000801AFCF843781F1863709F047C00E9476
:10077000D6019093010180930001A3CF9A94A1CF59
:1007800010E020C010E084E043C010E085E040C0ED
:1007900010E087E03DC00E94B9018C3619F4109238
:1007A000720104C0709272011092710120916E0169
:1007B00030916F012F5F3F4F30936F0120936E0197
:1007C00080CF11E080E024C00E94D601BC01C501A9
:1007D0000E94B906669EC001679E900D11249093F9
:1007E00007018093060160910401709105010E9448
:1007F000B906709303016093020163CF10926F01F9
:1008000010926E0169C010E089E002C010E08BE038
:10081000082F9CE0999E000D11240E94B901982F89
:10082000977F933261F420916E0130916F012F5FB9
:100830003F4F30936F0120936E010F5FEECF8D32EB
:1008400071F420916E0130916F012F5F3F4F309313
:100850006F0120936E0101500E94B901F0CF6091A9
:100860000201709103018153883050F4E090060139
:10087000F09007010E94D601BC01C7010E94B90691
:100880007B01F694E79469837A830E94B9016981B8
:100890007A818E3269F420916E0130916F012F5F61
:1008A0003F4F30936F0120936E016E0D7F1DE9CF96
:1008B00080917201882339F09B013695279520930A
:1008C0007101621B710940910001112311F08FEF3A
:1008D00001C0802F0E94D1022296E0E10C943B07D8
:1008E0001F920F920FB60F9211242F933F934F93A5
:1008F0005F936F937F938F939F93AF93BF93EF9388
:10090000FF9380917501909176019C0121503109EE
:100910003093760120937501892B11F510926F00A9
:10092000789480918100887F81608093810080E14C
:1009300097E2909389008093880010928B00109228
:100940008A0081E08093090180916E0190916F018E
:10095000892B31F080917401811102C00E9425031E
:10096000FF91EF91BF91AF919F918F917F916F9187
:100970005F914F913F912F910F900FBE0F901F905D
:10098000189510926F0090936F0180936E0181E033
:1009900080937301109271010E94250308950E94B3
:1009A000C104089581E090E06F9364E06A95F1F7E7
:1009B0006F910197C9F708950F931F93CF93DF931A
:1009C0001AB157985A98289AC0E0D0E00E94D204F1
:1009D0005C9A0E94D20409B15C980E94D2045C9A8D
:1009E0000E94D2045C98249607FF10C0AE0160E01C
:1009F00070E08091770190917801A0917901B09198
:100A00007A01481759076A077B0700F31AB9DF9183
:100A1000CF911F910F91089595B1282F217030E04B
:100A2000220F331F482F467068E0469FA001112413
:100A3000242B9D7C292B25B99BB188708295807FC2
:100A40009F77892B8BB95C9A0E94D2045C980E9494
:100A5000D2040895A0E0B0E0E0E3F5E00C942807AC
:100A6000C82FD62EE42E80918901811105C081E026
:100A7000809389010E9470050E94DC0414B1D5B1F5
:100A8000FAB00BB12898DD2011F05A9A01C05A989B
:100A900094B1926394B9579A81E0E81629F08C2FAB
:100AA00082958F700E940C058C2F8F700E940C0510
:100AB000FAB80BB914B9D5B9CDB7DEB7E7E00C94E5
:100AC000440742E060E00E942A05089542E061E0A8
:100AD0000E942A05089541E060E00E942A050895D9
:100AE00080E197E2A0E0B0E08093770190937801F5
:100AF000A0937901B0937A01529A209A549A8EE188
:100B000090E00E94AA0683E00E946B0586E090E0D8
:100B10000E94AA0683E00E946B0582E090E00E949A
:100B2000AA0683E00E946B0582E090E00E94AA067C
:100B300082E00E946B0582E090E00E94AA0688E2B3
:100B40000E94610588E00E94610581E00E946105C4
:100B500086E00E9461058CE00E946105089581E0B5
:100B60000E94610580917D0190917E01892BF9F0B1
:100B700060E0A0E2262F30E070910A0180910B0125
:100B800090E00197789FA001799F500D11242417C0
:100B900035074CF4E0917D01F0917E01E20FF31FE7
:100BA000A0836F5FE7CF10927B0110927C010895C4
:100BB0000E94AF050895CF93DF93EC0189918823BC
:100BC00019F00E946605FACFDF91CF9108950E9437
:100BD000DB050895AAE0B0E0E0EFF5E00C9427070C
:100BE0001AE05AE0C52ED12CE12CF12C062FA701DA
:100BF00096010E94CD06CA01B9011150E1E0F0E072
:100C0000EC0FFD1FE10FF11D005D2AE0629F00194E
:100C100011240083611571058105910539F71A309A
:100C200058F4E1E0F0E0EC0FFD1FE10FF11D8081D1
:100C30000E9466051F5FF3CF2A96E8E00C944307F5
:100C4000CF92DF92EF92FF926B017C0197FF0BC076
:100C5000F094E094D094C094C11CD11CE11CF11C10
:100C60008DE20E946605C701B6010E94EA05FF9069
:100C7000EF90DF90CF9008950E9420060895A5E0A0
:100C8000B0E0E5E4F6E00C942C07182F80E88983A7
:100C900080EC8A8384E98B8384ED8C83FE01E60FEC
:100CA000F11D8181810F6D830E94610510937B018D
:100CB0006D8160937C012596E3E00C9448070E94C7
:100CC0003F0608952F928F939F932FB680918601B0
:100CD000909187010196809386019093870190E01F
:100CE00080918801891F80938801909180019C5F89
:100CF0009093800180917F0180519742C0F0909342
:100D0000800180937F018091810190918201019601
:100D1000809381019093820190E080918301891FEB
:100D20008093830180918401891F809384012FBE69
:100D30009F918F912F90189528EE33E0019748F0FE
:100D4000F9016F9364E06A95F1F76F913197C9F7F4
:100D5000F5CF08950E949C060895991B79E004C080
:100D6000991F961708F0961B881F7A95C9F78095EA
:100D70000895AA1BBB1B51E107C0AA1FBB1FA617E2
:100D8000B70710F0A61BB70B881F991F5A95A9F734
:100D900080959095BC01CD010895A1E21A2EAA1B61
:100DA000BB1BFD010DC0AA1FBB1FEE1FFF1FA2171B
:100DB000B307E407F50720F0A21BB30BE40BF50B18
:100DC000661F771F881F991F1A9469F760957095A1
:100DD000809590959B01AC01BD01CF010895052E32
:100DE00097FB1EF400940E94060757FD07D00E944F
:100DF000CD0607FC03D04EF40C94060750954095A1
:100E0000309521953F4F4F4F5F4F089590958095B6
:100E1000709561957F4F8F4F9F4F0895A29FB001AE
:100E2000B39FC001A39F700D811D1124911DB29F1E
:100E3000700D811D1124911D08952F923F924F92A4
:100E40005F926F927F928F929F92AF92BF92CF925A
:100E5000DF92EF92FF920F931F93CF93DF93CDB763
:100E6000DEB7CA1BDB0B0FB6F894DEBF0FBECDBFDB
:100E700009942A88398848885F846E847D848C84AC
:100E80009B84AA84B984C884DF80EE80FD800C81B5
:100E90001B81AA81B981CE0FD11D0FB6F894DEBF98
:100EA0000FBECDBFED010895FB01DC010D900020C8
:100EB000E9F7119701900D920020E1F70895AEE057
:100EC000B0E0E5E6F7E00C942B070D891E8986E07B
:100ED0008C831A8309838FEF9FE79E838D83AE01F6
:100EE000475E5F4F6F89788DCE0101960E94810722
:100EF000EF81F885E00FF11F10822E96E4E00C944C
:100F00004707ABE0B0E0E7E8F7E00C941D076C01A1
:100F10007B018A01FC0117821682838181FFCCC18B
:100F2000CE0101963C01F6019381F70193FD859175
:100F300093FF81917F01882309F4BAC1853239F486
:100F400093FD859193FF81917F01853229F4B6014C
:100F500090E00E947809E7CF912C212C312CFFE101
:100F6000F315D8F08B3279F038F4803279F083328F
:100F7000A1F4232D20611DC08D3261F0803369F40E
:100F8000232D216016C0832D8260382EE32DE4606E
:100F90003E2E2AC0F32DF8601DC037FC2DC020ED79
:100FA000280F2A3040F08E32B9F436FC81C1232D4F
:100FB0002064322E19C036FE06C08AE0989E200DAD
:100FC0001124922E11C0EAE02E9E200D1124222E13
:100FD000F32DF0623F2E08C08C3621F4832D8068FB
:100FE000382E02C0883641F4F70193FD859193FFB6
:100FF00081917F018111B3CF982F9F7D95549330BC
:1010000028F40C5F1F4F9FE399830DC0833631F0A6
:10101000833771F0833509F059C021C0F801808110
:1010200089830E5F1F4F88248394912C530113C032
:101030002801F2E04F0E511CF801A080B18036FE6D
:1010400003C0692D70E002C06FEF7FEFC5010E9401
:101050006D094C018201F32DFF773F2E16C0280148
:1010600022E0420E511CF801A080B18036FE03C080
:10107000692D70E002C06FEF7FEFC5010E94620929
:101080004C01F32DF0683F2E820133FC1BC0822DF2
:1010900090E088169906B0F4B60180E290E00E94D4
:1010A00078092A94F4CFF50137FC859137FE8191B8
:1010B0005F01B60190E00E94780921102A9421E096
:1010C000821A91088114910471F7E8C0843611F0F6
:1010D000893641F5F80137FE07C060817181828150
:1010E00093810C5F1F4F08C060817181072E000C37
:1010F000880B990B0E5F1F4FF32DFF763F2E97FF46
:1011000009C090958095709561957F4F8F4F9F4F47
:10111000F0683F2E2AE030E0A3010E94B409882E37
:10112000861845C0853731F4232D2F7EB22E2AE054
:1011300030E025C0932D997FB92E8F36C1F018F479
:10114000883579F0B5C0803719F0883721F0B0C004
:10115000E92FE061BE2EB4FE0DC0FB2DF460BF2E62
:1011600009C034FE0AC0292F2660B22E06C028E02E
:1011700030E005C020E130E002C020E132E0F801BB
:10118000B7FE07C060817181828193810C5F1F4F20
:1011900006C06081718180E090E00E5F1F4FA30167
:1011A0000E94B409882E8618FB2DFF773F2E36FE4D
:1011B0000DC0232D2E7FA22E891458F434FE0BC0AF
:1011C00032FC09C0832D8E7EA82E05C0B82CA32C1E
:1011D00003C0B82C01C0B92CA4FE0FC0FE01E80D5D
:1011E000F11D8081803321F49A2D997EA92E09C0AA
:1011F000A2FE06C0B394B39404C08A2D867809F089
:10120000B394A3FC11C0A0FE06C0B21488F4280C4D
:10121000922C9B180EC0B21460F4B60180E290E0EC
:101220000E947809B394F7CFB21418F42B1802C0B7
:10123000982C212CA4FE10C0B60180E390E00E94FF
:101240007809A2FE17C0A1FC03C088E790E002C0A5
:1012500088E590E0B6010CC08A2D867859F0A1FE91
:1012600002C08BE201C080E2A7FC8DE2B60190E0F3
:101270000E947809891438F4B60180E390E00E9456
:1012800078099A94F7CF8A94F301E80DF11D8081D3
:10129000B60190E00E9478098110F5CF222009F470
:1012A00042CEB60180E290E00E9478092A94F6CFFF
:1012B000F6018681978102C08FEF9FEF2B96E2E1C6
:1012C0000C943907FC010590615070400110D8F76B
:1012D000809590958E0F9F1F0895FC01615070407E
:1012E00001900110D8F7809590958E0F9F1F08955B
:1012F0000F931F93CF93DF93FB01238121FD03C045
:101300008FEF9FEF2CC022FF16C0468157812481AA
:1013100035814217530744F4A081B1819D012F5FAD
:101320003F4F318320838C93268137812F5F3F4F3E
:101330003783268314C08B01EC01FB010084F18507
:10134000E02D0995892BE1F6D80116968D919C9197
:101350001797019617969C938E931697CE01DF915F
:10136000CF911F910F910895FA01AA27283051F1CA
:10137000203181F1E8946F936E7F6E5F7F4F8F4FC6
:101380009F4FAF4FB1E03ED0B4E03CD0670F781F25
:10139000891F9A1FA11D680F791F8A1F911DA11D0A
:1013A0006A0F711D811D911DA11D20D009F4689443
:1013B0003F912AE0269F11243019305D3193DEF6EB
:1013C000CF010895462F4770405D4193B3E00FD0A1
:1013D000C9F7F6CF462F4F70405D4A3318F0495D8C
:1013E00031FD4052419302D0A9F7EACFB4E0A6956F
:1013F0009795879577956795BA95C9F70097610591
:10140000710508959B01AC010A2E069457954795E6
:1014100037952795BA95C9F7620F731F841F951FDB
:08142000A01D0895F894FFCF10
:101428000F00F4010400D007040108029C01B50173
:10143800CF01EA0107022602470269028E02B502BD
:10144800DE020A0325640054657374203120414488
:1014580043002074696D6573006C6F6F70200053D2
:10146800746F70706564006D696420646F776E00D6
:101478006C65667420646F776E00726967687420A3
:0E148800646F776E0077616974696E670000AB
:00000001FF
